:1000000033C000004CC000004AC0000048C00000DF
:1000100046C0000044C0000042C0000040C00000D4
:100020003EC000003CC000003AC0000038C00000E4
:1000300036C0000034C0000032C0000030C00000F4
:100040002EC000002CC000002AC0000028C0000004
:1000500026C0000024C0000022C0000020C0000014
:100060001EC000001CC0000011241FBECFEFD8E04E
:10007000DEBFCDBF11E0A0E0B1E0E4E9FCE002C0EA
:1000800005900D92A831B107D9F721E0A8E1B1E0C0
:1000900001C01D92A432B207E1F763D2F9C5B0CF17
:1000A00084B1876084B98AB1806F8AB985B1887F4D
:1000B00085B98BB18F708BB908958FE99FE0019757
:1000C000F1F700C0000028982A9880E38BB9299A9C
:1000D000EFE1FEE43197F1F700C000002998EFE965
:1000E000FFE03197F1F700C0000028982A988BB9FB
:1000F000299AEFE1FEE43197F1F700C0000029985A
:10010000EFE9FFE03197F1F700C0000028982A9846
:100110008BB9299A8FE19EE40197F1F700C00000A6
:100120002998EFE9FFE03197F1F700C00000289827
:100130002A9880E28BB9299A8FE19EE40197F1F722
:1001400000C00000299808959BB19F709BB99BB196
:10015000282F207F922B9BB928982A98299AEFE183
:10016000FEE43197F1F700C0000029989BB19F7021
:100170009BB99BB18295807F892B8BB928982A984F
:10018000299A8FE19EE40197F1F700C000002998B9
:10019000089593DF8FE99FE00197F1F700C0000019
:1001A00088E2D2DF81E0D0DF86E0CEDF8EE0CCDFF8
:1001B00080E8CACF089580E8C7CF0895823069F0FB
:1001C00018F4813031F00895833059F0843069F0AB
:1001D00008958FE7860FB8CF08958FEB860FB4CFC1
:1001E000089583E9860FB0CF089583ED860FACCFD5
:1001F0000895CF93C42FE2DF8BB18F708BB98BB191
:100200009C2F907F892B8BB9289A2A98299A8FE165
:100210009EE40197F1F700C0000029988BB18F7020
:100220008BB98BB1C295C07FC82BCBB9289A2A98BD
:10023000299A8FE19EE40197F1F700C00000299808
:10024000CF9108950F931F93CF93DF93D82FC62F8D
:10025000FA014081442361F08F010F5F1F4F6C2F23
:100260008D2FC7DFCF5FF80141918F014111F7CF8B
:10027000DF91CF911F910F910895EF92FF920F930D
:100280001F93CF93DF93D82FC62F7A01890196DF72
:10029000FF204CF4F194E194F10840E051E06C2F20
:1002A0008D2FD0DFCF5FDD2311F0C11102C083DFBE
:1002B00003C06C2F8D2F82DF0530110509F0ADC012
:1002C000C70160E177E2D6D1AB01405D5F4F50934B
:1002D0001901409318016C2F8D2F8BDFCF5FC70161
:1002E00068EE73E0C7D1AB0170931B0160931A01F4
:1002F0009B01ADECBCECD1D19695879596958795F1
:10030000969587959C01220F331F880F991F880FA0
:10031000991F880F991F820F931F481B590B405D2F
:100320005F4F50932301409322016C2F8D2F61DF8B
:10033000CF5F03C00330110559F5C70164E670E0D3
:1003400099D1AB0170931B0160931A019B01ADEC35
:10035000BCECA3D1969587959695879596958795AC
:100360009C01220F331F880F991F880F991F880F38
:10037000991F820F931F481B590B405D5F4F50938D
:100380001F0140931E016C2F8D2F33DFCF5F04C000
:100390000230110509F046C0C7016AE070E06AD179
:1003A000AB0170931B0160931A019B01ADECBCEC97
:1003B00074D19695879596958795969587959C0186
:1003C000220F331F880F991F880F991F880F991FBD
:1003D000820F931F481B590B405D5F4F50931D01C7
:1003E00040931C016C2F8D2F04DFCF5FC7016AE0A3
:1003F00070E040D1AC01405D5F4F509321014093CC
:1004000020016C2F8D2FF5DECF5F0630110574F0C3
:1004100045E46C2F8D2FEDDE09C00430110509F085
:1004200089CF5DCF0130110581F7E0CFDF91CF910A
:100430001F910F91FF90EF90089587B1887F87B942
:1004400088B1887F88B9089587B1877E87B988B1D8
:10045000877E88B93D9845980895EAE7F0E0808165
:1004600086688083808186788083EBE7F0E08081F6
:10047000807B8083ECE7F0E08081807680838081E0
:100480008066808380B7806880BF0895883030F0B0
:10049000EBE7F0E090819860908305C0EBE7F0E037
:1004A0009081977F9083982F977F943030F4ECE77A
:1004B000F0E090819B7F908305C0ECE7F0E09081B5
:1004C00094609083982F937041F0282F30E0215052
:1004D000310923703327232B31F4ECE7F0E09081CE
:1004E0009D7F908305C0ECE7F0E09081926090835F
:1004F00080FD06C0ECE7F0E080818E7F8083089568
:10050000ECE7F0E08081816080830895EAE7F0E025
:10051000808180648083089580917A0086FB88279B
:1005200080F991E08927089598DFEAE7F0E080817B
:100530008061808380811082EBE7F0E0808110820F
:10054000ECE7F0E0808110820895CF939FDFDEDF3B
:10055000E3DF8823E9F3C0917900E6DF8C2FCF91A8
:100560000895CF93DF93CDB7DEB769970FB6F894B0
:10057000DEBF0FBECDBF61DF67DF6FDF91DD09DE5C
:1005800087E690E055D00F2EF2E0CF2EF1E0DF2E7F
:10059000F02DCE0101967C0181E0D7DF882E80E02E
:1005A000D4DFA82E82E0D1DF982E83E0CEDFB82EF4
:1005B00084E0CBDF082F85E0C8DF182F482D50E0FE
:1005C00023E030E061E081E058DE4A2D50E023E096
:1005D00030E065E081E051DE492D50E023E030E07D
:1005E00069E081E04ADE4B2D50E023E030E061E03D
:1005F00082E043DE402F50E023E030E065E082E01F
:100600003CDE412F50E023E030E069E082E035DE5F
:100610001F92AF92DF92CF92FF92EF9261D0C7010B
:100620001DD00F900F900F900F900F900F90B4CFA0
:10063000E1ECF0E010829093C5008093C400A2EC3E
:10064000B0E08C918F738C938C9186608C938081B9
:100650008861808380818B7F80830895FC019081F5
:10066000992339F03196A6ECB0E09C9391919111C9
:10067000FCCF089597FB072E16F4009406D077FD63
:1006800008D01AD007FC05D03EF4909581959F4F75
:100690000895709561957F4F0895A29FB001B39F13
:1006A000C001A39F700D811D1124911DB29F700D7B
:1006B000811D1124911D0895AA1BBB1B51E107C088
:1006C000AA1FBB1FA617B70710F0A61BB70B881FE2
:1006D000991F5A95A9F780959095BC01CD01089571
:1006E000AEE0B0E0E5E7F3E0AAC20D891E8986E03E
:1006F0008C831A8309838FEF9FE79E838D83AE01DE
:10070000475E5F4F6F89788DCE01019608D0EF81EB
:10071000F885E00FF11F10822E96E4E0ACC2ABE04A
:10072000B0E0E4E9F3E07DC26C017B018A01FC01E9
:1007300017821682838181FFBFC1CE0101963C01E1
:10074000F6019381F70193FD859193FF81917F01DC
:10075000882309F4ADC1853239F493FD859193FF67
:1007600081917F01853221F4B60190E0C0D1E8CFBC
:10077000912C212C312CFFE1F315D8F08B3279F03C
:1007800038F4803279F08332A1F4232D20611DC02A
:100790008D3261F0803369F4232D216016C0832DE2
:1007A0008260382EE32DE4603E2E2AC0F32DF860DF
:1007B0001DC037FC2DC020ED280F2A3040F08E32AE
:1007C000B9F436FC75C1232D2064322E19C036FED3
:1007D00006C08AE0989E200D1124922E11C0EAE0F6
:1007E0002E9E200D1124222EF32DF0623F2E08C0E4
:1007F0008C3621F4832D8068382E02C0883641F46F
:10080000F70193FD859193FF81917F018111B3CF12
:10081000982F9F7D9554933028F40C5F1F4F9FE3D2
:1008200099830DC0833631F0833771F0833509F039
:1008300055C020C0F801808189830E5F1F4F882436
:100840008394912C530112C02801F2E04F0E511CE9
:10085000F801A080B18036FE03C0692D70E002C0AF
:100860006FEF7FEFC50138D14C018201F32DFF7787
:100870003F2E15C0280122E0420E511CF801A08035
:10088000B18036FE03C0692D70E002C06FEF7FEFCC
:10089000C50117D14C01F32DF0683F2E820133FCC6
:1008A00019C0822D90E088169906A0F4B60180E266
:1008B00090E01DD12A94F5CFF50137FC859137FEE4
:1008C00081915F01B60190E012D121102A9421E0BC
:1008D000821A91088114910479F7E1C0843611F0ED
:1008E000893639F5F80137FE07C060817181828150
:1008F00093810C5F1F4F08C060817181072E000C2F
:10090000880B990B0E5F1F4FF32DFF763F2E97FF3D
:1009100009C090958095709561957F4F8F4F9F4F3F
:10092000F0683F2E2AE030E0A3011DD1882E861802
:1009300044C0853731F4232D2F7EB22E2AE030E0DB
:1009400025C0932D997FB92E8F36C1F018F48835C4
:1009500079F0AEC0803719F0883721F0A9C0E92FAF
:10096000E061BE2EB4FE0DC0FB2DF460BF2E09C0A9
:1009700034FE0AC0292F2660B22E06C028E030E0DF
:1009800005C020E130E002C020E132E0F801B7FE0E
:1009900007C060817181828193810C5F1F4F06C007
:1009A0006081718180E090E00E5F1F4FA301DBD07A
:1009B000882E8618FB2DFF773F2E36FE0DC0232D87
:1009C0002E7FA22E891458F434FE0BC032FC09C0CD
:1009D000832D8E7EA82E05C0B82CA32C03C0B82C66
:1009E00001C0B92CA4FE0FC0FE01E80DF11D8081ED
:1009F000803321F49A2D997EA92E09C0A2FE06C04B
:100A0000B394B39404C08A2D867809F0B394A3FC00
:100A100010C0A0FE06C0B21480F4280C922C9B18C3
:100A20000DC0B21458F4B60180E290E060D0B394E7
:100A3000F8CFB21418F42B1802C0982C212CA4FE65
:100A40000FC0B60180E390E052D0A2FE16C0A1FC18
:100A500003C088E790E002C088E590E0B6010CC0D2
:100A60008A2D867851F0A1FE02C08BE201C080E29F
:100A7000A7FC8DE2B60190E03AD0891430F4B601BB
:100A800080E390E034D09A94F8CF8A94F301E80D93
:100A9000F11D8081B60190E02AD08110F6CF22208E
:100AA00009F44ECEB60180E290E021D02A94F7CF2F
:100AB000F6018681978102C08FEF9FEF2B96E2E1CE
:100AC000CCC0FC010590615070400110D8F78095B2
:100AD00090958E0F9F1F0895FC016150704001900A
:100AE0000110D8F7809590958E0F9F1F08950F9352
:100AF0001F93CF93DF93FB01238121FD03C08FEF71
:100B00009FEF2CC022FF16C046815781248135817A
:100B10004217530744F4A081B1819D012F5F3F4FDD
:100B2000318320838C93268137812F5F3F4F37831A
:100B3000268314C08B01EC01FB010084F185E02DBC
:100B40000995892BE1F6D80116968D919C911797FE
:100B5000019617969C938E931697CE01DF91CF91B5
:100B60001F910F910895FA01AA27283051F12031E1
:100B700081F1E8946F936E7F6E5F7F4F8F4F9F4F31
:100B8000AF4FB1E03ED0B4E03CD0670F781F891F73
:100B90009A1FA11D680F791F8A1F911DA11D6A0F41
:100BA000711D811D911DA11D20D009F468943F91F4
:100BB0002AE0269F11243019305D3193DEF6CF01F3
:100BC0000895462F4770405D4193B3E00FD0C9F7B9
:100BD000F6CF462F4F70405D4A3318F0495D31FD26
:100BE0004052419302D0A9F7EACFB4E0A695979579
:100BF000879577956795BA95C9F70097610571054F
:100C000008959B01AC010A2E069457954795379598
:100C10002795BA95C9F7620F731F841F951FA01DF2
:100C200008952F923F924F925F926F927F928F9290
:100C30009F92AF92BF92CF92DF92EF92FF920F936B
:100C40001F93CF93DF93CDB7DEB7CA1BDB0B0FB675
:100C5000F894DEBF0FBECDBF09942A883988488832
:100C60005F846E847D848C849B84AA84B984C884C8
:100C7000DF80EE80FD800C811B81AA81B981CE0FBF
:100C8000D11D0FB6F894DEBF0FBECDBFED010895A4
:040C9000F894FFCF06
:100C94002D0043656E74657220574C206461746145
:080CA4003A20253033640A00F8
:00000001FF
