:1000000033C000004DC0000037C0000035C0000004
:1000100033C0000031C000002FC000002DC0000020
:100020002BC0000029C0000027C0000025C0000030
:1000300023C0000021C000001FC000001DC0000040
:100040001BC0000019C0000017C0000015C0000050
:1000500013C0000011C000000FC000000DC0000060
:100060000BC0000009C0000011241FBECFEFD8E074
:10007000DEBFCDBF38D03CC0C3CF569A5E9808953E
:1000800052985A9A0895F894EA9AE9E6F0E0808145
:100090008C7F8083789408955E9A08955E98089581
:1000A0001F920F920FB60F9211242F933F934F93ED
:1000B0005F936F937F938F939F93AF93BF93EF93D0
:1000C000FF93EADFFF91EF91BF91AF919F918F91E5
:1000D0007F916F915F914F913F912F910F900FBE44
:1000E0000F901F901895C9DFCBDFCDDFD7DFFECF94
:0400F000F894FFCFB2
:00000001FF
